{
  "_format": "hh-sol-artifact-1",
  "contractName": "coldChain",
  "sourceName": "contracts/coldChain.sol",
  "abi": [
    {
      "anonymous": false,
      "inputs": [
        {
          "indexed": true,
          "internalType": "address",
          "name": "issuer",
          "type": "address"
        },
        {
          "indexed": true,
          "internalType": "address",
          "name": "prover",
          "type": "address"
        },
        {
          "indexed": false,
          "internalType": "uint256",
          "name": "certificateId",
          "type": "uint256"
        }
      ],
      "name": "IssueCertificateEvent",
      "type": "event"
    },
    {
      "anonymous": false,
      "inputs": [
        {
          "indexed": false,
          "internalType": "address",
          "name": "entityId",
          "type": "address"
        },
        {
          "indexed": false,
          "internalType": "string",
          "name": "entityMode",
          "type": "string"
        }
      ],
      "name": "addEntityEvent",
      "type": "event"
    },
    {
      "anonymous": false,
      "inputs": [
        {
          "indexed": false,
          "internalType": "uint256",
          "name": "vaccineBatchId",
          "type": "uint256"
        },
        {
          "indexed": true,
          "internalType": "address",
          "name": "manufacturer",
          "type": "address"
        }
      ],
      "name": "addVaccineBatchEvent",
      "type": "event"
    },
    {
      "inputs": [],
      "name": "MAX_CERTIFICATION",
      "outputs": [
        {
          "internalType": "uint256",
          "name": "",
          "type": "uint256"
        }
      ],
      "stateMutability": "view",
      "type": "function"
    },
    {
      "inputs": [
        {
          "internalType": "address",
          "name": "_id",
          "type": "address"
        },
        {
          "internalType": "string",
          "name": "_mode",
          "type": "string"
        }
      ],
      "name": "addEntity",
      "outputs": [],
      "stateMutability": "nonpayable",
      "type": "function"
    },
    {
      "inputs": [
        {
          "internalType": "string",
          "name": "_brand",
          "type": "string"
        },
        {
          "internalType": "address",
          "name": "_manufacturer",
          "type": "address"
        }
      ],
      "name": "addVaccineBatch",
      "outputs": [
        {
          "internalType": "uint256",
          "name": "",
          "type": "uint256"
        }
      ],
      "stateMutability": "nonpayable",
      "type": "function"
    },
    {
      "inputs": [
        {
          "internalType": "uint256",
          "name": "",
          "type": "uint256"
        }
      ],
      "name": "certificateIds",
      "outputs": [
        {
          "internalType": "uint256",
          "name": "",
          "type": "uint256"
        }
      ],
      "stateMutability": "view",
      "type": "function"
    },
    {
      "inputs": [
        {
          "internalType": "uint256",
          "name": "",
          "type": "uint256"
        }
      ],
      "name": "certificates",
      "outputs": [
        {
          "internalType": "uint256",
          "name": "id",
          "type": "uint256"
        },
        {
          "components": [
            {
              "internalType": "address",
              "name": "id",
              "type": "address"
            },
            {
              "internalType": "enum coldChain.mode",
              "name": "_mode",
              "type": "uint8"
            },
            {
              "internalType": "uint256[]",
              "name": "certificateId",
              "type": "uint256[]"
            }
          ],
          "internalType": "struct coldChain.entity",
          "name": "issuer",
          "type": "tuple"
        },
        {
          "components": [
            {
              "internalType": "address",
              "name": "id",
              "type": "address"
            },
            {
              "internalType": "enum coldChain.mode",
              "name": "_mode",
              "type": "uint8"
            },
            {
              "internalType": "uint256[]",
              "name": "certificateId",
              "type": "uint256[]"
            }
          ],
          "internalType": "struct coldChain.entity",
          "name": "prover",
          "type": "tuple"
        },
        {
          "internalType": "bytes",
          "name": "signature",
          "type": "bytes"
        },
        {
          "internalType": "enum coldChain.certificateStatus",
          "name": "_status",
          "type": "uint8"
        }
      ],
      "stateMutability": "view",
      "type": "function"
    },
    {
      "inputs": [
        {
          "internalType": "address",
          "name": "",
          "type": "address"
        }
      ],
      "name": "entities",
      "outputs": [
        {
          "internalType": "address",
          "name": "id",
          "type": "address"
        },
        {
          "internalType": "enum coldChain.mode",
          "name": "_mode",
          "type": "uint8"
        }
      ],
      "stateMutability": "view",
      "type": "function"
    },
    {
      "inputs": [
        {
          "internalType": "bytes32",
          "name": "_msg",
          "type": "bytes32"
        },
        {
          "internalType": "uint256",
          "name": "_id",
          "type": "uint256"
        },
        {
          "internalType": "address",
          "name": "_issuer",
          "type": "address"
        }
      ],
      "name": "isMatchingSignature",
      "outputs": [
        {
          "internalType": "bool",
          "name": "",
          "type": "bool"
        }
      ],
      "stateMutability": "view",
      "type": "function"
    },
    {
      "inputs": [
        {
          "internalType": "address",
          "name": "_issuer",
          "type": "address"
        },
        {
          "internalType": "address",
          "name": "_prover",
          "type": "address"
        },
        {
          "internalType": "string",
          "name": "_status",
          "type": "string"
        },
        {
          "internalType": "uint256",
          "name": "vaccineBatchId",
          "type": "uint256"
        },
        {
          "internalType": "bytes",
          "name": "_sig",
          "type": "bytes"
        }
      ],
      "name": "issueCertificate",
      "outputs": [
        {
          "internalType": "uint256",
          "name": "",
          "type": "uint256"
        }
      ],
      "stateMutability": "nonpayable",
      "type": "function"
    },
    {
      "inputs": [
        {
          "internalType": "uint256",
          "name": "",
          "type": "uint256"
        }
      ],
      "name": "vaccineBatchIds",
      "outputs": [
        {
          "internalType": "uint256",
          "name": "",
          "type": "uint256"
        }
      ],
      "stateMutability": "view",
      "type": "function"
    },
    {
      "inputs": [
        {
          "internalType": "uint256",
          "name": "",
          "type": "uint256"
        }
      ],
      "name": "vaccineBatches",
      "outputs": [
        {
          "internalType": "uint256",
          "name": "id",
          "type": "uint256"
        },
        {
          "internalType": "string",
          "name": "brand",
          "type": "string"
        },
        {
          "internalType": "address",
          "name": "manifacturer",
          "type": "address"
        }
      ],
      "stateMutability": "view",
      "type": "function"
    }
  ],
  "bytecode": "0x608060405234801561001057600080fd5b506126bd806100206000396000f3fe608060405234801561001057600080fd5b506004361061009e5760003560e01c8063663b3e2211610066578063663b3e22146101845780637aefaf39146101b8578063b5bad46d146101e8578063c8d8184b14610204578063fc79b0a9146102345761009e565b806303a692b9146100a35780630a053376146100d55780630f9c774d146100f35780631d8ee48a1461012357806345194c0714610154575b600080fd5b6100bd60048036038101906100b89190611858565b610264565b6040516100cc9392919061196e565b60405180910390f35b6100dd610336565b6040516100ea91906119ac565b60405180910390f35b61010d60048036038101906101089190611858565b61033b565b60405161011a91906119ac565b60405180910390f35b61013d600480360381019061013891906119f3565b61035f565b60405161014b929190611a97565b60405180910390f35b61016e60048036038101906101699190611af6565b6103b0565b60405161017b9190611b64565b60405180910390f35b61019e60048036038101906101999190611858565b610738565b6040516101af959493929190611d48565b60405180910390f35b6101d260048036038101906101cd9190611858565b6109e9565b6040516101df91906119ac565b60405180910390f35b61020260048036038101906101fd9190611ee5565b610a0d565b005b61021e60048036038101906102199190611fe2565b610bc6565b60405161022b91906119ac565b60405180910390f35b61024e60048036038101906102499190612095565b611175565b60405161025b91906119ac565b60405180910390f35b600060205280600052604060002060009150905080600001549080600101805461028d90612120565b80601f01602080910402602001604051908101604052809291908181526020018280546102b990612120565b80156103065780601f106102db57610100808354040283529160200191610306565b820191906000526020600020905b8154815290600101906020018083116102e957829003601f168201915b5050505050908060020160009054906101000a900473ffffffffffffffffffffffffffffffffffffffff16905083565b600281565b6003818154811061034b57600080fd5b906000526020600020016000915090505481565b60026020528060005260406000206000915090508060000160009054906101000a900473ffffffffffffffffffffffffffffffffffffffff16908060000160149054906101000a900460ff16905082565b600080600160008581526020019081526020016000206040518060a001604052908160008201548152602001600182016040518060600160405290816000820160009054906101000a900473ffffffffffffffffffffffffffffffffffffffff1673ffffffffffffffffffffffffffffffffffffffff1673ffffffffffffffffffffffffffffffffffffffff1681526020016000820160149054906101000a900460ff16600281111561046657610465611a20565b5b600281111561047857610477611a20565b5b8152602001600182018054806020026020016040519081016040528092919081815260200182805480156104cb57602002820191906000526020600020905b8154815260200190600101908083116104b7575b5050505050815250508152602001600382016040518060600160405290816000820160009054906101000a900473ffffffffffffffffffffffffffffffffffffffff1673ffffffffffffffffffffffffffffffffffffffff1673ffffffffffffffffffffffffffffffffffffffff1681526020016000820160149054906101000a900460ff16600281111561056357610562611a20565b5b600281111561057557610574611a20565b5b8152602001600182018054806020026020016040519081016040528092919081815260200182805480156105c857602002820191906000526020600020905b8154815260200190600101908083116105b4575b50505050508152505081526020016005820180546105e590612120565b80601f016020809104026020016040519081016040528092919081815260200182805461061190612120565b801561065e5780601f106106335761010080835404028352916020019161065e565b820191906000526020600020905b81548152906001019060200180831161064157829003601f168201915b505050505081526020016006820160009054906101000a900460ff16600481111561068c5761068b611a20565b5b600481111561069e5761069d611a20565b5b8152505090508273ffffffffffffffffffffffffffffffffffffffff1681602001516000015173ffffffffffffffffffffffffffffffffffffffff16146106e457600080fd5b60006106f486836060015161132d565b905081602001516000015173ffffffffffffffffffffffffffffffffffffffff168173ffffffffffffffffffffffffffffffffffffffff1614925050509392505050565b6001602052806000526040600020600091509050806000015490806001016040518060600160405290816000820160009054906101000a900473ffffffffffffffffffffffffffffffffffffffff1673ffffffffffffffffffffffffffffffffffffffff1673ffffffffffffffffffffffffffffffffffffffff1681526020016000820160149054906101000a900460ff1660028111156107dc576107db611a20565b5b60028111156107ee576107ed611a20565b5b81526020016001820180548060200260200160405190810160405280929190818152602001828054801561084157602002820191906000526020600020905b81548152602001906001019080831161082d575b50505050508152505090806003016040518060600160405290816000820160009054906101000a900473ffffffffffffffffffffffffffffffffffffffff1673ffffffffffffffffffffffffffffffffffffffff1673ffffffffffffffffffffffffffffffffffffffff1681526020016000820160149054906101000a900460ff1660028111156108d5576108d4611a20565b5b60028111156108e7576108e6611a20565b5b81526020016001820180548060200260200160405190810160405280929190818152602001828054801561093a57602002820191906000526020600020905b815481526020019060010190808311610926575b5050505050815250509080600501805461095390612120565b80601f016020809104026020016040519081016040528092919081815260200182805461097f90612120565b80156109cc5780601f106109a1576101008083540402835291602001916109cc565b820191906000526020600020905b8154815290600101906020018083116109af57829003601f168201915b5050505050908060060160009054906101000a900460ff16905085565b600481815481106109f957600080fd5b906000526020600020016000915090505481565b6000610a188261139c565b90506000600267ffffffffffffffff811115610a3757610a36611dba565b5b604051908082528060200260200182016040528015610a655781602001602082028036833780820191505090505b509050600060405180606001604052808673ffffffffffffffffffffffffffffffffffffffff168152602001846002811115610aa457610aa3611a20565b5b815260200183815250905080600260008773ffffffffffffffffffffffffffffffffffffffff1673ffffffffffffffffffffffffffffffffffffffff16815260200190815260200160002060008201518160000160006101000a81548173ffffffffffffffffffffffffffffffffffffffff021916908373ffffffffffffffffffffffffffffffffffffffff16021790555060208201518160000160146101000a81548160ff02191690836002811115610b6157610b60611a20565b5b02179055506040820151816001019080519060200190610b82929190611698565b509050507f204ff4229eb3d674e0deec6b9bb5b61551adc9e62c281b965171e03d8898f8398585604051610bb7929190612151565b60405180910390a15050505050565b600080600260008873ffffffffffffffffffffffffffffffffffffffff1673ffffffffffffffffffffffffffffffffffffffff1681526020019081526020016000206040518060600160405290816000820160009054906101000a900473ffffffffffffffffffffffffffffffffffffffff1673ffffffffffffffffffffffffffffffffffffffff1673ffffffffffffffffffffffffffffffffffffffff1681526020016000820160149054906101000a900460ff166002811115610c8e57610c8d611a20565b5b6002811115610ca057610c9f611a20565b5b815260200160018201805480602002602001604051908101604052809291908181526020018280548015610cf357602002820191906000526020600020905b815481526020019060010190808311610cdf575b505050505081525050905060006002811115610d1257610d11611a20565b5b81602001516002811115610d2957610d28611a20565b5b14610d3357600080fd5b6000600260008873ffffffffffffffffffffffffffffffffffffffff1673ffffffffffffffffffffffffffffffffffffffff1681526020019081526020016000206040518060600160405290816000820160009054906101000a900473ffffffffffffffffffffffffffffffffffffffff1673ffffffffffffffffffffffffffffffffffffffff1673ffffffffffffffffffffffffffffffffffffffff1681526020016000820160149054906101000a900460ff166002811115610dfa57610df9611a20565b5b6002811115610e0c57610e0b611a20565b5b815260200160018201805480602002602001604051908101604052809291908181526020018280548015610e5f57602002820191906000526020600020905b815481526020019060010190808311610e4b575b505050505081525050905060016002811115610e7e57610e7d611a20565b5b81602001516002811115610e9557610e94611a20565b5b14610e9f57600080fd5b6000610eaa876114bf565b90506000600380549050905060006040518060a00160405280838152602001868152602001858152602001888152602001846004811115610eee57610eed611a20565b5b815250905060038080549050908060018154018082558091505060019003906000526020600020016000909190919091505580600160006001600380549050610f3791906121b0565b81526020019081526020016000206000820151816000015560208201518160010160008201518160000160006101000a81548173ffffffffffffffffffffffffffffffffffffffff021916908373ffffffffffffffffffffffffffffffffffffffff16021790555060208201518160000160146101000a81548160ff02191690836002811115610fca57610fc9611a20565b5b02179055506040820151816001019080519060200190610feb929190611698565b50505060408201518160030160008201518160000160006101000a81548173ffffffffffffffffffffffffffffffffffffffff021916908373ffffffffffffffffffffffffffffffffffffffff16021790555060208201518160000160146101000a81548160ff0219169083600281111561106957611068611a20565b5b0217905550604082015181600101908051906020019061108a929190611698565b50505060608201518160050190805190602001906110a99291906116e5565b5060808201518160060160006101000a81548160ff021916908360048111156110d5576110d4611a20565b5b02179055509050508973ffffffffffffffffffffffffffffffffffffffff168b73ffffffffffffffffffffffffffffffffffffffff167f9ac79ef2b7605a00e830228afc81d2b2de741ff81f269d2c1c5dfb5b5790f5ca600160038054905061113e91906121b0565b60405161114b91906119ac565b60405180910390a3600160038054905061116591906121b0565b9550505050505095945050505050565b600080600267ffffffffffffffff81111561119357611192611dba565b5b6040519080825280602002602001820160405280156111c15781602001602082028036833780820191505090505b50905060006004805490509050600060405180608001604052808381526020018781526020018673ffffffffffffffffffffffffffffffffffffffff1681526020018481525090508060008084815260200190815260200160002060008201518160000155602082015181600101908051906020019061124292919061176b565b5060408201518160020160006101000a81548173ffffffffffffffffffffffffffffffffffffffff021916908373ffffffffffffffffffffffffffffffffffffffff16021790555060608201518160030190805190602001906112a6929190611698565b5090505060048290806001815401808255809150506001900390600052602060002001600090919091909150558473ffffffffffffffffffffffffffffffffffffffff167fb10b206158ba83eb175fea453aac0a116f719601d7ca4a585bcd28de07bd60158360405161131991906119ac565b60405180910390a281935050505092915050565b60008060008061133c85611666565b92509250925060018684848460405160008152602001604052604051611365949392919061220f565b6020604051602081039080840390855afa158015611387573d6000803e3d6000fd5b50505060206040510351935050505092915050565b600080826040516020016113b09190612290565b60405160208183030381529060405280519060200120905060006040516020016113d9906122f3565b604051602081830303815290604052805190602001209050600060405160200161140290612354565b604051602081830303815290604052805190602001209050600060405160200161142b906123b5565b6040516020818303038152906040528051906020012090508284036114575760009450505050506114ba565b81840361146b5760019450505050506114ba565b80840361147f5760029450505050506114ba565b6040517f08c379a00000000000000000000000000000000000000000000000000000000081526004016114b190612416565b60405180910390fd5b919050565b600080826040516020016114d39190612290565b60405160208183030381529060405280519060200120905060006040516020016114fc90612482565b6040516020818303038152906040528051906020012090506000604051602001611525906124e3565b604051602081830303815290604052805190602001209050600060405160200161154e90612544565b6040516020818303038152906040528051906020012090506000604051602001611577906125a5565b60405160208183030381529060405280519060200120905060006040516020016115a090612606565b6040516020818303038152906040528051906020012090508486036115ce5760009650505050505050611661565b8386036115e45760019650505050505050611661565b8286036115fa5760029650505050505050611661565b8186036116105760039650505050505050611661565b8086036116265760049650505050505050611661565b6040517f08c379a000000000000000000000000000000000000000000000000000000000815260040161165890612667565b60405180910390fd5b919050565b6000806000604184511461167957600080fd5b6020840151915060408401519050606084015160001a92509193909250565b8280548282559060005260206000209081019282156116d4579160200282015b828111156116d35782518255916020019190600101906116b8565b5b5090506116e191906117f1565b5090565b8280546116f190612120565b90600052602060002090601f016020900481019282611713576000855561175a565b82601f1061172c57805160ff191683800117855561175a565b8280016001018555821561175a579182015b8281111561175957825182559160200191906001019061173e565b5b50905061176791906117f1565b5090565b82805461177790612120565b90600052602060002090601f01602090048101928261179957600085556117e0565b82601f106117b257805160ff19168380011785556117e0565b828001600101855582156117e0579182015b828111156117df5782518255916020019190600101906117c4565b5b5090506117ed91906117f1565b5090565b5b8082111561180a5760008160009055506001016117f2565b5090565b6000604051905090565b600080fd5b600080fd5b6000819050919050565b61183581611822565b811461184057600080fd5b50565b6000813590506118528161182c565b92915050565b60006020828403121561186e5761186d611818565b5b600061187c84828501611843565b91505092915050565b61188e81611822565b82525050565b600081519050919050565b600082825260208201905092915050565b60005b838110156118ce5780820151818401526020810190506118b3565b838111156118dd576000848401525b50505050565b6000601f19601f8301169050919050565b60006118ff82611894565b611909818561189f565b93506119198185602086016118b0565b611922816118e3565b840191505092915050565b600073ffffffffffffffffffffffffffffffffffffffff82169050919050565b60006119588261192d565b9050919050565b6119688161194d565b82525050565b60006060820190506119836000830186611885565b818103602083015261199581856118f4565b90506119a4604083018461195f565b949350505050565b60006020820190506119c16000830184611885565b92915050565b6119d08161194d565b81146119db57600080fd5b50565b6000813590506119ed816119c7565b92915050565b600060208284031215611a0957611a08611818565b5b6000611a17848285016119de565b91505092915050565b7f4e487b7100000000000000000000000000000000000000000000000000000000600052602160045260246000fd5b60038110611a6057611a5f611a20565b5b50565b6000819050611a7182611a4f565b919050565b6000611a8182611a63565b9050919050565b611a9181611a76565b82525050565b6000604082019050611aac600083018561195f565b611ab96020830184611a88565b9392505050565b6000819050919050565b611ad381611ac0565b8114611ade57600080fd5b50565b600081359050611af081611aca565b92915050565b600080600060608486031215611b0f57611b0e611818565b5b6000611b1d86828701611ae1565b9350506020611b2e86828701611843565b9250506040611b3f868287016119de565b9150509250925092565b60008115159050919050565b611b5e81611b49565b82525050565b6000602082019050611b796000830184611b55565b92915050565b611b888161194d565b82525050565b611b9781611a76565b82525050565b600081519050919050565b600082825260208201905092915050565b6000819050602082019050919050565b611bd281611822565b82525050565b6000611be48383611bc9565b60208301905092915050565b6000602082019050919050565b6000611c0882611b9d565b611c128185611ba8565b9350611c1d83611bb9565b8060005b83811015611c4e578151611c358882611bd8565b9750611c4083611bf0565b925050600181019050611c21565b5085935050505092915050565b6000606083016000830151611c736000860182611b7f565b506020830151611c866020860182611b8e565b5060408301518482036040860152611c9e8282611bfd565b9150508091505092915050565b600081519050919050565b600082825260208201905092915050565b6000611cd282611cab565b611cdc8185611cb6565b9350611cec8185602086016118b0565b611cf5816118e3565b840191505092915050565b60058110611d1157611d10611a20565b5b50565b6000819050611d2282611d00565b919050565b6000611d3282611d14565b9050919050565b611d4281611d27565b82525050565b600060a082019050611d5d6000830188611885565b8181036020830152611d6f8187611c5b565b90508181036040830152611d838186611c5b565b90508181036060830152611d978185611cc7565b9050611da66080830184611d39565b9695505050505050565b600080fd5b600080fd5b7f4e487b7100000000000000000000000000000000000000000000000000000000600052604160045260246000fd5b611df2826118e3565b810181811067ffffffffffffffff82111715611e1157611e10611dba565b5b80604052505050565b6000611e2461180e565b9050611e308282611de9565b919050565b600067ffffffffffffffff821115611e5057611e4f611dba565b5b611e59826118e3565b9050602081019050919050565b82818337600083830152505050565b6000611e88611e8384611e35565b611e1a565b905082815260208101848484011115611ea457611ea3611db5565b5b611eaf848285611e66565b509392505050565b600082601f830112611ecc57611ecb611db0565b5b8135611edc848260208601611e75565b91505092915050565b60008060408385031215611efc57611efb611818565b5b6000611f0a858286016119de565b925050602083013567ffffffffffffffff811115611f2b57611f2a61181d565b5b611f3785828601611eb7565b9150509250929050565b600067ffffffffffffffff821115611f5c57611f5b611dba565b5b611f65826118e3565b9050602081019050919050565b6000611f85611f8084611f41565b611e1a565b905082815260208101848484011115611fa157611fa0611db5565b5b611fac848285611e66565b509392505050565b600082601f830112611fc957611fc8611db0565b5b8135611fd9848260208601611f72565b91505092915050565b600080600080600060a08688031215611ffe57611ffd611818565b5b600061200c888289016119de565b955050602061201d888289016119de565b945050604086013567ffffffffffffffff81111561203e5761203d61181d565b5b61204a88828901611eb7565b935050606061205b88828901611843565b925050608086013567ffffffffffffffff81111561207c5761207b61181d565b5b61208888828901611fb4565b9150509295509295909350565b600080604083850312156120ac576120ab611818565b5b600083013567ffffffffffffffff8111156120ca576120c961181d565b5b6120d685828601611eb7565b92505060206120e7858286016119de565b9150509250929050565b7f4e487b7100000000000000000000000000000000000000000000000000000000600052602260045260246000fd5b6000600282049050600182168061213857607f821691505b60208210810361214b5761214a6120f1565b5b50919050565b6000604082019050612166600083018561195f565b818103602083015261217881846118f4565b90509392505050565b7f4e487b7100000000000000000000000000000000000000000000000000000000600052601160045260246000fd5b60006121bb82611822565b91506121c683611822565b9250828210156121d9576121d8612181565b5b828203905092915050565b6121ed81611ac0565b82525050565b600060ff82169050919050565b612209816121f3565b82525050565b600060808201905061222460008301876121e4565b6122316020830186612200565b61223e60408301856121e4565b61224b60608301846121e4565b95945050505050565b600081905092915050565b600061226a82611894565b6122748185612254565b93506122848185602086016118b0565b80840191505092915050565b600061229c828461225f565b915081905092915050565b7f4953535545520000000000000000000000000000000000000000000000000000600082015250565b60006122dd600683612254565b91506122e8826122a7565b600682019050919050565b60006122fe826122d0565b9150819050919050565b7f50524f5645520000000000000000000000000000000000000000000000000000600082015250565b600061233e600683612254565b915061234982612308565b600682019050919050565b600061235f82612331565b9150819050919050565b7f5645524946494552000000000000000000000000000000000000000000000000600082015250565b600061239f600883612254565b91506123aa82612369565b600882019050919050565b60006123c082612392565b9150819050919050565b7f696e76616c696420656e74697479206d6f646500000000000000000000000000600082015250565b600061240060138361189f565b915061240b826123ca565b602082019050919050565b6000602082019050818103600083015261242f816123f3565b9050919050565b7f4d414e5546414354555245440000000000000000000000000000000000000000600082015250565b600061246c600c83612254565b915061247782612436565b600c82019050919050565b600061248d8261245f565b9150819050919050565b7f44454c49564552494e475f494e5445524e4154494f4e414c0000000000000000600082015250565b60006124cd601883612254565b91506124d882612497565b601882019050919050565b60006124ee826124c0565b9150819050919050565b7f53544f5245440000000000000000000000000000000000000000000000000000600082015250565b600061252e600683612254565b9150612539826124f8565b600682019050919050565b600061254f82612521565b9150819050919050565b7f44454c49564552494e475f4c4f43414c00000000000000000000000000000000600082015250565b600061258f601083612254565b915061259a82612559565b601082019050919050565b60006125b082612582565b9150819050919050565b7f44454c4956455244000000000000000000000000000000000000000000000000600082015250565b60006125f0600883612254565b91506125fb826125ba565b600882019050919050565b6000612611826125e3565b9150819050919050565b7f696e76616c696420737461747573000000000000000000000000000000000000600082015250565b6000612651600e8361189f565b915061265c8261261b565b602082019050919050565b6000602082019050818103600083015261268081612644565b905091905056fea26469706673582212202b9bed897af26a076e2fec1c6a8b976bbe11880684eab35a10504d52d87ea2ed64736f6c634300080d0033",
  "linkReferences": {},
  "deployedLinkReferences": {}
}